:100000000C9439000C9456000C9456000C94560035
:100010000C944A200C9456000C9456000C94070B38
:100020000C9456000C9456000C94CE020C9456007E
:100030000C9456000C9456000C9456000C945600E8
:100040000C9456000C9456000C9456000C945600D8
:100050000C94560005A84CCDB2D44EB93836A9023E
:100060000C50B9918688083CA6AAAA2ABE000000B6
:10007000803F11241FBECFE5D8E0DEBFCDBF11E029
:10008000A0E6B0E0EEE9FDE502C005900D92AA3CC5
:10009000B107D9F714E0AAECB1E001C01D92A43574
:1000A000B107E1F70E94DF200C94CD2E0C940000E4
:1000B00080FF02C0D89A01C0D89881FF02C0D99AA7
:1000C00001C0D99882FF02C0DA9A01C0DA9883FF92
:1000D00002C0DB9A0895DB9808951F93182FC19AE8
:1000E00082958F700E945800C198C19A812F0E94FA
:1000F0005800C19885E88A95F1F71F910895C09836
:100100000E946D000895C09A0E946D000895CF93DB
:10011000DF93EC0103C021960E948300888188232D
:10012000D1F7DF91CF9108956295660F660F607CDD
:10013000680F862F80680E947F00089581E00E94EA
:100140007F0080EA9FE00197F1F7089582E00E9426
:100150007F0080EA9FE00197F1F708951F93CF9306
:10016000DF93D09AD19AD29AD39AB99AB89A80E367
:1001700095E70197F1F7C098C19810E0C0E1D7E288
:10018000C19A83E00E945800C198CE010197F1F70F
:100190001F5F1330A9F7C19A82E00E945800C198EE
:1001A00080ED97E00197F1F788E20E947F0088E0F8
:1001B0000E947F0081E00E947F0080EA9FE001971B
:1001C000F1F786E00E947F008CE00E947F00DF91C3
:1001D000CF911F91089583B7886083BF83B78460F0
:1001E00083BF82E38CBF89B7826089BF789408950A
:1001F000CF92DF92EF92FF921F936B017C01142F3D
:100200000E94EB00113009F042C0889A899A8A9ABC
:100210008B9A20E030E040E050E08091CA018823D2
:1002200009F493988091CA01813009F4919A8091E0
:10023000CA01823009F490988091CA01833009F490
:10024000929A8091CA01843009F491988091CA01F0
:10025000853009F4939A8091CA01863009F4929806
:100260008091CA01873009F4909A8091CA01883040
:10027000A0F21092CA012F5F3F4F4F4F5F4FC2163F
:10028000D306E406F50648F69098939844C01230D9
:1002900009F041C0A49AA59AA69AA79A20E030E056
:1002A00040E050E08091CA01882309F4AF98809122
:1002B000CA01813009F4AD9A8091CA01823009F4F3
:1002C000AC988091CA01833009F4AE9A8091CA013A
:1002D000843009F4AD988091CA01853009F4AF9A51
:1002E0008091CA01863009F4AE988091CA018730A6
:1002F00009F4AC9A8091CA018830A0F21092CA0128
:100300002F5F3F4F4F4F5F4FC216D306E406F506EF
:1003100048F6AC98AF981F91FF90EF90DF90CF9088
:100320000895CF92DF92EF92FF921F936B017C01B1
:10033000142F0E94EB00113009F041C0889A899A6D
:100340008A9A8B9A20E030E040E050E08091CA0128
:10035000882309F490988091CA01813009F4929A17
:100360008091CA01823009F493988091CA01833048
:1003700009F4919A8091CA01843009F4929880918D
:10038000CA01853009F4909A8091CA01863009F437
:1003900091988091CA01873009F4939A8091CA019B
:1003A0008830A0F21092CA012F5F3F4F4F4F5F4F2E
:1003B000C216D306E406F50648F6909844C01230FB
:1003C00009F041C0A49AA59AA69AA79A20E030E025
:1003D00040E050E08091CA01882309F4AC988091F4
:1003E000CA01813009F4AE9A8091CA01823009F4C1
:1003F000AF988091CA01833009F4AD9A8091CA0107
:10040000843009F4AE988091CA01853009F4AC9A21
:100410008091CA01863009F4AD988091CA01873075
:1004200009F4AF9A8091CA018830A0F21092CA01F3
:100430002F5F3F4F4F4F5F4FC216D306E406F506BE
:1004400048F6AC98AF981F91FF90EF90DF90CF9057
:100450000895EF92FF920F931F937B018C010E94EE
:10046000EB00D09AD19AD29AD39A89E0EE0CFF1C75
:10047000001F111F8A95D1F7C801B70128E631E0A6
:1004800040E050E00E94A42B79018A0120E030E096
:1004900040E050E08091CA01882311F4D89ADA989C
:1004A0008091CA01813011F4D99ADB988091CA01F8
:1004B000823011F4DA9AD8988091CA01833011F40D
:1004C000DB9AD9988091CA01843020F31092CA0136
:1004D0002F5F3F4F4F4F5F4FE216F306040715079C
:1004E000C8F61F910F91FF90EF900895EF92FF9241
:1004F0000F931F937B018C010E94EB00A49AA59A95
:10050000A69AA79A20E030E040E050E08091CA012E
:10051000882311F4AF9AAD988091CA01813011F40B
:10052000AE9AAC988091CA01823011F4AD9AAF981E
:100530008091CA01833011F4AC9AAE988091CA01BF
:10054000843020F31092CA012F5F3F4F4F4F5F4F0F
:10055000E216F30604071507C8F61F910F91FF90E6
:10056000EF900895CF93DF93C1E0D0E062E070E0B8
:1005700080E090E041E00E94F80062E070E080E0FE
:1005800090E042E00E94F800219681E0C130D80757
:1005900069F780E090E0DF91CF9108951F920F926C
:1005A0000FB60F9211248F938091CA018F5F8093B1
:1005B000CA018F910F900FBE0F901F9018958091D8
:1005C000470108958091CD011092CD010895909337
:1005D000CC018093CB0108958091CB019091CC0107
:1005E0000895AF92BF92CF92DF92EF92FF920F9356
:1005F0001F935C0170E080E090E020E03FE24AE37E
:1006000050E00E94712B6C507E4F8F4F9F4F28EE11
:1006100033E040E050E00E94A42B79018A01CC2411
:10062000DD24C801B701A60195010E94712B169522
:100630000795F794E7946E0D7F1D801F911F28EE9C
:1006400033E040E050E00E94A42BCA01B9011F91A1
:100650000F91FF90EF90DF90CF90BF90AF900895F3
:10066000EF92FF920F931F93CF93DF93182F7B018D
:10067000042F809147010E945B0A812F0E94B20AD9
:100680008091470181600E94A40AE7010AC00230FC
:1006900018F00E94C60A02C00E94D40A8883015042
:1006A00021960023A1F70E94A70ADF91CF911F9105
:1006B0000F91FF90EF9008950F931F93CF93DF93C7
:1006C000182FEB01042F809147010E945B0A812FB4
:1006D0000E94B20A04C089910E94B20A015000230C
:1006E000D1F70E94A70ADF91CF911F910F91089532
:1006F0006F927F928F929F92AF92BF92CF92DF9232
:10070000EF92FF920F931F93182F809147010E9441
:100710005B0A812F0E94B20A8091470181600E948A
:10072000A40A0E94C60A682E772488249924962C4D
:100730008824772466240E94C60AA82E0E94C60A2E
:10074000E82E0E94D40ABB24CC24DD246501BB24FE
:10075000AA246A287B288C289D2890E0A0E0B0E09D
:10076000682A792A8A2A9B2A0E94A70AFF2400E085
:1007700010E0102F0F2DFE2CEE24E628F728082974
:100780001929B701C8011F910F91FF90EF90DF90D9
:10079000CF90BF90AF909F908F907F906F90089573
:1007A000EF92FF920F931F93182F809147010E94A1
:1007B0005B0A812F0E94B20A8091470181600E94EA
:1007C000A40A0E94C60AF82EEE240E94D40A082F1A
:1007D0000E94A70A10E00E291F29C8011F910F913E
:1007E000FF90EF90089584E40E94D003A0E0B0E071
:1007F000BC01CD010E94752920E030E040E05CE3BF
:100800000E943C2A08951F93182F809147010E944F
:100810005B0A812F0E94B20A8091470181600E9489
:10082000A40A0E94D40A182F0E94A70A812F1F91A0
:1008300008950F931F938C0181E00E940304982F69
:1008400092959170F8019083982F9695969596952C
:1008500091709283982F9695969591709183829539
:10086000869586958370982F91709383869584835F
:100870001F910F910895882331F480E50E940304AD
:100880008F5F880F0895813011F08FEF089580E712
:100890000E9403048F5F880F08950F931F93CF93D7
:1008A000DF938C01EB0180E00E943B048883198276
:1008B00086E40E94030490E001969D838C83688106
:1008C0000E94F1026A877B878C879D8781E50E9461
:1008D000D003282F30E002C0220F331F9A95E2F791
:1008E0002F5F3F4F3F832E83C90168810E94F10231
:1008F0006E877F87888B998B81E00E943B048A8377
:100900001B8281E70E94D003282F30E002C0220F13
:10091000331F9A95E2F72F5F3F4F39872887F801F9
:100920008381882331F08E819F81281B390B398781
:100930002887888599856A810E94F1026A8B7B8B62
:100940008C8B9D8BDF91CF911F910F9108950F9309
:100950001F93DF93CF93CDB7DEB76B970FB6F894A5
:10096000DEBF0FBECDBF8E010F5F1F4FC8010E94BB
:100970001904C801BE016A5F7F4F0E944D0489813E
:10098000882329F426E33BE040E050E008C02889B2
:1009900039894A895B892C57324F4F4F5F4F8B8182
:1009A000882369F088899989AA89BB898E549D4FCB
:1009B000AF4FBF4F880F991FAA1FBB1F0BC08A8163
:1009C000882361F088899989AA89BB898C569D4FB3
:1009D000AF4FBF4F280F391F4A1F5B1F8C818823E1
:1009E00061F08C899D89AE89BF898C569D4FAF4F30
:1009F000BF4F280F391F4A1F5B1F8D81882361F06D
:100A0000888D998DAA8DBB8D8A5D9D4FAF4FBF4F4D
:100A1000280F391F4A1F5B1F2093E1013093E20129
:100A20004093E3015093E401B901CA016B960FB6FC
:100A3000F894DEBF0FBECDBFCF91DF911F910F9114
:100A40000895DF92EF92FF920F931F93D82E7A01B1
:100A50008B01809147010E945B0A8D2D0E94B20A92
:100A6000812F9927AA27BB270E94B20AC801AA276B
:100A7000BB270E94B20ABB27A12F902F8F2D0E9467
:100A8000B20A8E2D0E94B20A0E94A70A1F910F91EE
:100A9000FF90EF90DF900895FF920F931F93182F10
:100AA000F62E072F809147010E945B0A812F0E943A
:100AB000B20A802F0E94B20A8F2D0E94B20A0E94B1
:100AC000A70A1F910F91FF9008955F926F927F92F6
:100AD0008F929F92AF92BF92CF92DF92EF92FF924E
:100AE0000F931F93DF93CF93CDB7DEB76B970FB6FE
:100AF000F894DEBF0FBECDBF3B014C0180E268160B
:100B00008EE4780680E0880680E0980608F4C2C08B
:100B10008E010F5F1F4FC8010E941904C801BE015A
:100B20006A5F7F4F0E944D048981882329F428EE53
:100B300038E040E050E008C0288939894A895B895B
:100B40002A5C344F4F4F5F4F8B81882369F088892F
:100B50009989AA89BB898E549D4FAF4FBF4F880F8B
:100B6000991FAA1FBB1F0BC08A81882361F0888947
:100B70009989AA89BB898C569D4FAF4FBF4F280FCB
:100B8000391F4A1F5B1F5C80552061F08C899D894D
:100B9000AE89BF898C569D4FAF4FBF4F280F391F6D
:100BA0004A1F5B1F8D81882309F472C0F6E2AF2EC5
:100BB000F2E0BF2EC12CD12CA20EB31EC41ED51E36
:100BC0006A147B048C049D0408F464C0688570E09A
:100BD00080E090E020E03FE24AE350E00E94712B89
:100BE0006C507E4F8F4F9F4F28EE33E040E050E037
:100BF0000E94A42B79018A01C401B3016A197B09FF
:100C00008C099D0928EE33E040E050E00E94712BF2
:100C10009B01AC01C801B7019695879577956795BB
:100C2000620F731F841F951FA80197010E94A42BB8
:100C3000552021F08C859D85280F391F2115310500
:100C400019F460E070E019C02150304040E050E0FD
:100C5000E0E0F0E005C05695479537952795319629
:100C6000DA01C90180700097A105B105A1F7B901AA
:100C700070709E2F8827682B792B81E70E944C0586
:100C80006092E1017092E2018092E3019092E401AE
:100C900081E001C080E06B960FB6F894DEBF0FBE16
:100CA000CDBFCF91DF911F910F91FF90EF90DF901B
:100CB000CF90BF90AF909F908F907F906F905F90FC
:100CC0000895EF92FF920F931F937B018C0120E018
:100CD00030E040E050E00E94422987FD1CC0C8017E
:100CE000B70128EB3EEF4FEF53E40E94382A181665
:100CF00094F0C801B70120E030E040E053E40E94E6
:100D00003C2A0E9449299B01AC0184E4B9010E945C
:100D10004C0581E001C080E01F910F91FF90EF90A2
:100D200008950F931F93182F062F809147010E945B
:100D30005B0A812F0E94B20A802F0E94B20A0E9491
:100D4000A70A1F910F910895682F616080E00E94AB
:100D500091060E94F90A7093DF016093DE0117C0CB
:100D60008091CB019091CC01892B89F00E94F90AE6
:100D70002091DE013091DF01621B730B2091CB01CA
:100D80003091CC012617370710F480E0089583E1F5
:100D90000E94030490E087709070892B09F38BE028
:100DA00061E00E94910680E060E00E94910681E08F
:100DB00008950F931F93CF93DF93EC018B0180E88D
:100DC00061E00E9491068FEF61E00E94910680E051
:100DD00060E00E9491068FEF66E00E94910683E832
:100DE0000E940304682F646083E80E9491068FEFDD
:100DF00067E00E94910681E861E00E94910680E828
:100E000061E00E94910684E96BE60E94910683E806
:100E100060E00E9491060E94F90A7093DF016093DE
:100E2000DE0117C08091CB019091CC01892B89F014
:100E30000E94F90A2091DE013091DF01621B730BE1
:100E40002091CB013091CC012617370710F480E0B8
:100E500035C083E80E940304882321F383E861E01E
:100E60000E94910682E90E940304982F9F7798833D
:100E7000881F8827881FF801808381E860E00E942E
:100E800091068FEF66E00E94910683E80E940304BA
:100E9000682F6B7F83E80E9491068FEF61E00E94CC
:100EA000910680E061E00E9491068FEF60E00E9471
:100EB000910680E860E00E94910681E0DF91CF9189
:100EC0001F910F910895EF92FF920F931F93DF935D
:100ED000CF93CDB7DEB72C970FB6F894DEBF0FBE19
:100EE000CDBF7C0180E861E00E9491068FEF61E058
:100EF0000E94910680E060E00E94910681E9609185
:100F0000E0010E94910680E061E00E9491068FEF6F
:100F100060E00E94910680E860E00E94910680E017
:100F200061E00E9491060E94F90A7093DF016093CC
:100F3000DE011BC08091CB019091CC01892BA9F0DF
:100F40000E94F90A2091DE013091DF01621B730BD0
:100F50002091CB013091CC012617370730F481E086
:100F60008093CD010FEF1FEF3FC080E00E9403048C
:100F700080FDE0CFE114F10429F48EE10E94D0035A
:100F80008C012EC084E1BE016F5F7F4F4CE00E9458
:100F900030038981869586958695F70180879B81A8
:100FA00080E02C8130E0822B932B978386839F8176
:100FB00080E0288530E0822B932B93838283998570
:100FC00080E02A8530E0822B932B958384839B8558
:100FD00080E02C85022F10E0082B192B1183008351
:100FE0008BE061E00E949106C8012C960FB6F89440
:100FF000DEBF0FBECDBFCF91DF911F910F91FF904C
:10100000EF900895FF920F931F93DF93CF93CDB787
:10101000DEB728970FB6F894DEBF0FBECDBF88238A
:1010200041F089E80E940304682F616089E80E940A
:10103000910688E860E00E94910680E861E00E94E5
:1010400091068FEF61E00E94910680E060E00E94CF
:10105000910681E90E9403048093E00180E061E051
:101060000E9491068FEF60E00E94910680E860E0A8
:101070000E94910680E60E940304682F626180E668
:101080000E94910660E070E080E89EE30E946106A5
:1010900081E06FEF0E949106CE010196BE016E5F66
:1010A0007F4F0E94D906882309F4E1C180EBBE017D
:1010B0006D5F7F4F46E00E9430038FEF61E00E943A
:1010C00091068FE460E00E9491068EE46CE20E943B
:1010D00091068FEF60E00E94910686EB64EB0E9420
:1010E00091068A81882311F470E001C07CE0F980C8
:1010F00060E040E050E0DE01139601E010E0842F54
:10110000471710F06F15A9F4869586958695FD0111
:10111000E80FF11DCA0187709070980102C0220F7C
:10112000331F8A95E2F7C90180952081822380834D
:1011300012C0869586958695FD01E80FF11D808188
:1011400090E09A012770307002C0959587952A9596
:10115000E2F780FD6F5F4F5F5F4F4033510579F6D7
:1011600080EBBE016D5F7F4F46E00E945C038FEF16
:1011700061E00E94910680E060E00E9491068FEF9E
:1011800060E00E94910689E060E00E94910680E1A3
:1011900060E00E94910681E160E00E94910684E295
:1011A00061E00E94910685E26FEF0E94910685E75B
:1011B00060E00E9491068FEF61E00E9491068EE44C
:1011C0006CE20E94910688E460E00E94910680E350
:1011D00060E20E9491068FEF60E00E94910680E33A
:1011E00069E00E94910684E560E00E94910681E337
:1011F00064E00E94910682E363E00E94910680E42D
:1012000063E80E94910686E465E20E94910680E60A
:1012100060E00E94910687E260E00E94910680E50E
:1012200066E00E94910681E560E00E94910682E5F9
:1012300066E90E94910686E568E00E94910687E5CE
:1012400060E30E94910681E660E00E94910682E6DA
:1012500060E00E94910684E660E00E94910685E6C7
:1012600060E00E94910686E660EA0E9491068FEF98
:1012700061E00E94910682E262E30E94910687E4A7
:1012800064E10E94910689E46FEF0E9491068AE46E
:1012900060E00E9491068FEF60E00E9491068AE76D
:1012A0006AE00E9491068BE760E00E94910688E761
:1012B00061E20E9491068FEF61E00E94910683E255
:1012C00064E30E94910682E460E00E94910684E457
:1012D0006FEF0E94910685E466E20E94910686E423
:1012E00065E00E94910680E460E40E9491068EE031
:1012F00066E00E94910680E26AE10E94910683E422
:1013000060E40E9491068FEF60E00E94910684E302
:1013100063E00E94910685E364E40E9491068FEFEA
:1013200061E00E94910681E364E00E9491068BE4F3
:1013300069E00E9491068CE465E00E9491068DE4CC
:1013400064E00E9491068FEF60E00E94910684E4C1
:1013500060E00E94910685E460E20E94910687E4C5
:1013600068E00E94910688E468E20E94910687E6A0
:1013700060E00E94910680E764E00E94910681E7A8
:1013800061E00E94910682E76EEF0E94910686E777
:1013900060E00E94910687E760E00E9491068FEF6F
:1013A00061E00E9491068DE061E00E9491068FEF5E
:1013B00060E00E94910680E861E00E94910681E071
:1013C00068EF0E9491068FEF61E00E9491068EE81F
:1013D00061E00E94910680E061E00E9491068FEF3B
:1013E00060E00E94910680E860E00E9491068AE039
:1013F00064E00E94910684E80E940304682F6F7ED7
:1014000084E80E9491068BE061E00E9491060E94B0
:10141000A7046093E1017093E2018093E30190934C
:10142000E40181E068EE0E9491066091E101709113
:10143000E2018091E3019091E4010E94650581E061
:1014400061E00E94910680E40E94A406882379F05E
:1014500081E062E00E94910680E00E94A406882359
:1014600031F081E068EE0E94910681E001C080E0E9
:1014700028960FB6F894DEBF0FBECDBFCF91DF9197
:101480001F910F91FF9008951F93182F682F669555
:101490008AE80E949106109347011F91089583E006
:1014A00085BB0E94570A0E94EF0A7894089511B8EC
:1014B00082E080B90895282F84EA86BF8FEF9FEFDE
:1014C00003C006B607FC03C00197D9F71DC081B160
:1014D000887F883011F08031B9F423B984E886BF61
:1014E0008FEF9FEF03C006B607FC03C00197D9F743
:1014F0000BC091B1987F983111F480E0089580E09D
:10150000903419F081E0089581E0089544EA34E8C8
:1015100024E946BF06B607FEFDCF91B1987F98300B
:1015200011F09031B1F783B936BF06B607FEFDCF93
:1015300091B1987F903211F0983529F426BF06B604
:1015400004FCFDCFE6CF08950E945B0A089584E96C
:1015500086BF8FEF9FEF03C006B604FE02C001975F
:10156000D9F7089583B984E886BF8FEF9FEF03C052
:1015700006B607FC03C00197D9F705C081B190E01A
:10158000887F883209F091E0892F089584EC86BF26
:101590008FEF9FEF05C006B607FE02C083B1089526
:1015A0000197C9F780E0089584E886BF8FEF9FEF29
:1015B00005C006B607FE02C083B108950197C9F7BA
:1015C00080E008951F9310E0812F880F0E945B0A2E
:1015D0000E94A70A1F5F1038B9F71F91089520E1F4
:1015E0002FBD85E08EBD8AE790E09BBD8ABD29BFF7
:1015F00008958FB7F8942091CE013091CF0140919A
:10160000D0015091D1018FBFB901CA0108951F9235
:101610000F920FB60F9211248F939F93AF93BF93A6
:101620008091CE019091CF01A091D001B091D101D4
:101630000F96A11DB11D8093CE019093CF01A09371
:10164000D001B093D1019091D201892F835A809318
:10165000D2018D37B0F090529093D2018091CE019B
:101660009091CF01A091D001B091D1010196A11D1F
:10167000B11D8093CE019093CF01A093D001B09380
:10168000D101BF91AF919F918F910F900FBE0F909D
:101690001F9018950E942A290895882311F084E04C
:1016A0000895862FBA010E94062608950F931F936E
:1016B000882311F084E006C0CB01BA01A90198018A
:1016C0000E948F251F910F9108950F931F938823D8
:1016D00011F084E006C0CB01BA01A90198010E9473
:1016E0003F251F910F910895882311F081E00895FF
:1016F0000E945B240895882311F081E008950E94E0
:101700003C250895FC01238130E040E050E0542F57
:10171000432F322F2227828190E0A0E0B0E0282BD7
:10172000392B4A2B5B2B542F432F322F22278181B9
:1017300090E0A0E0B0E0282B392B4A2B5B2B542FF4
:10174000432F322F2227808190E0A0E0B0E0282BA9
:10175000392B4A2B5B2BB901CA010895CF93DF9334
:101760009C01FC014193BB27A72F962F852FE901F0
:101770008983CB01AA27BB278183472F552766275B
:1017800077274283DF91CF910895EF92FF920F93D5
:101790001F93FC01DB015B969C915B9780E05A965E
:1017A0002C915A9730E0822B932B7C0100E010E0C3
:1017B0008081833091F455969C91559780E05496A2
:1017C0002C9130E0822B932BA0E0B0E0DC01992734
:1017D0008827E82AF92A0A2B1B2BB701C8011F9179
:1017E0000F91FF90EF900895CF93DF93EC01E88184
:1017F000F9813097F9F0DF018C918132B0F01196C8
:101800008A33D1F79081892F80538A3098F43296A9
:10181000EA17FB0779F4892F90E0C0978230910591
:101820004CF4B983A8839C0107C08091D901282F6B
:1018300030E002C02FEF3FEFC901DF91CF91089553
:101840000F931F93CF93DF93EC018B01009799F0D7
:10185000E881F981309779F08081882361F02A81CD
:101860003B81858196812817390729F481810E945F
:101870007B0B80FF0CC080E090E029E0F8019183B1
:101880008083822FDF91CF911F910F9108958881DE
:10189000998120E0F3CF8F929F92AF92BF92CF9227
:1018A000DF92EF92FF920F931F93CF93DF93EC01A0
:1018B0008B818823C1F133E3C32ED12CCC0EDD1EE6
:1018C0002FA538A949A95AA98981B60101E010E0DC
:1018D0000E94560B882311F081E026C01B82EFA4E2
:1018E000F8A809A91AA92B8D3C8D4D8D5E8D8BA171
:1018F0009CA1ADA1BEA147015801881A990AAA0A64
:10190000BB0A82169306A406B50668F48A81823063
:1019100051F42E0D3F1D401F511F8981B60101E07A
:1019200010E00E94560B80E0DF91CF911F910F9144
:10193000FF90EF90DF90CF90BF90AF909F908F90EF
:101940000895AF92BF92CF92DF92EF92FF920F93E2
:101950001F93DF93CF930F92CDB7DEB75C016A017F
:101960007B01FC0187A590A9A1A9B2A94817590735
:101970006A077B0711F490E01FC0C5010E944B0C61
:10198000982F8823C9F4B5016D5C7F4FF5018181E3
:10199000A701960101E010E099830E94650B9981EF
:1019A000882329F0CC24CA94DC2C760191E0F5013F
:1019B000C7A6D0AAE1AAF2AA892F0F90CF91DF91F2
:1019C0001F910F91FF90EF90DF90CF90BF90AF905D
:1019D00008950F931F93CF93DF93EC011B828FEF3A
:1019E0009FEFAFEFBFEF8FA798ABA9ABBAABCE011C
:1019F0000E94A10C882319F024E030E098C0CE5C4E
:101A0000DD4F988180E02A91C153D240022F10E02F
:101A1000082B192B8BA98B3E29F0893E19F0883EA3
:101A200009F07AC02AEA0535120761F4CE018B5716
:101A30009F4F60E670E048E050E00E94C62B0097A0
:101A400009F473C09FAD80E02EAD422F50E0482BCB
:101A5000592BC05CDF4F2881C054D040CA01019788
:101A600084239523892B09F057C082E04030580722
:101A700008F452C04050524009F04EC0222309F4ED
:101A80004BC030E0C901019782239323892B09F0D1
:101A900043C0CE5BDF4F988180E02A91C154D04093
:101AA00030E0822B932B892BB9F1CD5BDF4F8881FE
:101AB000C354D04090E00197029770F5CB5BDF4FA5
:101AC000988180E02A91C454D04030E0822B932B3F
:101AD000892B11F1C95BDF4F988180E02A91C654B0
:101AE000D04030E0822B932B8038910550F4CE010A
:101AF0008D5A9F4F0E94820B6050704081409040F1
:101B000058F0C65BDF4F388120E0FE01829190E003
:101B1000282B392B232B49F405551A4A19F023E0B9
:101B200030E005C022E030E002C020E030E0C90132
:101B3000DF91CF911F910F9108952F923F924F9275
:101B40005F926F927F928F929F92AF92BF92CF924D
:101B5000DF92EF92FF920F931F93DF93CF93CDB756
:101B6000DEB768970FB6F894DEBF0FBECDBF6B012E
:101B7000B42EDB011D921C920E94F40B7C0197FF96
:101B800002C08BE0C6C2FC01EE0FFF1FED52FE4FFC
:101B9000008111810115110511F48CE0BAC2F60122
:101BA00011830083BEEFDB2EDB20D8018C918823CC
:101BB00061F011968C910E947B0B80FD06C0DD20A8
:101BC00009F4A4C282FDA0C2A1C2F8011082E18280
:101BD0008E2D0E94740B80FF02C083E09AC2DD202C
:101BE00011F082FD91C2C80140E050E060E070E079
:101BF0000E94E90C8230910509F040C06E01089402
:101C0000C11CD11C5601A6ECEA2EA1E0FA2E23E35A
:101C100030E0E20EF31EC8018E0D9F1D0E94820B64
:101C2000D5016D937D938D939D935D01EDEDFFEF58
:101C3000EE0EFF1EF6E0EF16F2E0FF0641F7F1E1CF
:101C4000EF2EF12CEC0EFD1ED6014D915D916D91A4
:101C50007C91411551056105710519F483E090E00F
:101C600006C0C8010E94E90C8230910578F0E4E0DA
:101C7000F0E0CE0EDF1ECE14DF0431F78430910584
:101C800011F481E046C2029708F042C2D8019F9643
:101C90008D919D910D90BC91A02D8D8B9E8BAF8BC6
:101CA000B88FF80197AD80E026AD30E0822B932B02
:101CB0008050924009F02CC2065B1F4FD8019C91C6
:101CC00080E0F80122918F010954104030E0822B0E
:101CD000932B2C0166247724411451046104710470
:101CE00039F4C801895A9F4F0E94820B2B013C0195
:101CF000D8015B964D925D926D927C925E970D5BE2
:101D00001F4FF801308003541040D80112963C92C6
:101D1000832D8150823008F0FBC1005C1F4FF80119
:101D2000808100541040282F30E0D8011A963C934F
:101D30002E9319972115310509F4EAC1C9010197BC
:101D400082239323892B09F0E3C10B5B1F4FF8011A
:101D5000908180E0D8012E918D0104541040C22E54
:101D6000DD24C82AD92AF801D086C782C6018F701F
:101D70009070892B09F0CCC1095B1F4FD8019C9151
:101D800080E0F80122918F010654104030E0822B50
:101D9000932B4C01AA24BB2481149104A104B10407
:101DA00039F4C8018D5A9F4F0E94820B4B015C0190
:101DB0000E5B1F4FD8019C9180E0F80122918F01AA
:101DC00001541040E22EFF24E82AF92AE114F1041C
:101DD00009F49EC1232D30E040E050E0C301B20180
:101DE0000E94712B698B7A8B8B8B9C8B27016624CD
:101DF0007724E4E0D694C794EA95E1F7EE24FF2433
:101E0000C40CD51CE61CF71CC60ED71EE81EF91E16
:101E10008C149D04AE04BF0408F47AC18C189D088C
:101E2000AE08BF08D80119962D913C911A9740E051
:101E300050E0C501B4010E94A42BC901DA0100974A
:101E4000A105B10509F464C1863FEFEF9E07EFEFEE
:101E5000AE07EFE0BE0708F05BC1863FFFEF9F07CC
:101E6000F0E0AF07F0E0BF0720F053E0252E312C63
:101E70000FC0863F2FE0920720E0A20720E0B207C4
:101E800020F441E0242E312C03C032E0232E312CEB
:101E900022E0822E912CA12CB12C880E991EAA1E14
:101EA000BB1ED80157968D929D92AD92BC925A97C7
:101EB0008D899E89AF89B88DF801878F90A3A1A3E2
:101EC000B2A39C01AD01240D351D461D571DD8013F
:101ED00093962D933D934D935C9396978D899E8910
:101EE000AF89B88DC80ED91EEA1EFB1ED8019B967D
:101EF000CD92DD92ED92FC929E97B3E02B163104C9
:101F000061F5025A1F4FF801908180E0D8012E91AF
:101F10008D010D55104030E0822B932B892B09F059
:101F2000F7C0F80187819085892B09F0F1C0C801BD
:101F3000815A9F4F0E94820BD80197966D937D9393
:101F40008D939C939A97A5019401F2E0220F331F81
:101F5000441F551FFA95D1F738C0F8018781908545
:101F6000892B09F4D5C089899A89AB89BC89280F46
:101F7000391F4A1F5B1FD80197962D933D934D93B0
:101F80005C939A97D501C401880F991FAA1FBB1FA4
:101F9000E2E02E16310419F49C01AD0116C09C013B
:101FA000AD01280D391D4A1D5B1D56954795379586
:101FB000279581E090E0A0E0B0E088229922AA2253
:101FC000BB22280D391D4A1D5B1D21503E4F4F4F2E
:101FD0005F4F69E056954795379527956A95D1F7F4
:101FE000F801838D948DA58DB68D82179307A40774
:101FF000B50708F48DC08FEF9FEFAFEFBFEF878776
:10200000908BA18BB28B83879487A587B68780E856
:102010008483F3E02F16310409F061C00C591F4F7F
:10202000D8019C9180E0F80122918F010356104065
:1020300030E0822B932B019709F051C08D899E8946
:10204000AF89B88D0196A11DB11D8D8B9E8BAF8B75
:10205000B88FC8014D895E896F89788D0E94A10C67
:10206000882309F03CC0D80114961C920E5C1D4FC9
:10207000F801908180E0D8012E918D01015312402A
:1020800030E0822B932B85559A4A49F5C801C396B7
:102090000E94820B625572458146914401F5C80148
:1020A000895E9D4F0E94820B625772478144914620
:1020B000B1F4C801855E9D4F0E94820BD8011F9626
:1020C0006D937D938D939C935297C801815E9D4F34
:1020D0000E94820BF8016387748785879687D801F1
:1020E0002C928091D7019091D80101969093D801BC
:1020F0008093D70116969C938E931597F801138AB7
:10210000148A158A168A02C08AE003C080E001C0E2
:102110008DE068960FB6F894DEBF0FBECDBFCF91AD
:10212000DF911F910F91FF90EF90DF90CF90BF90C4
:10213000AF909F908F907F906F905F904F903F9067
:102140002F9008951F93DF93CF9300D000D000D03D
:10215000CDB7DEB79C838B837E836D83142F7A8308
:102160006983CE0101960E94F40BDC0197FF02C047
:102170008BE022C0FC01EE0FFF1FED52FE4F0190DD
:10218000F081E02D309709F01082EB81FC813097CF
:1021900009F01082AA0FBB1FAD52BE4FED93FC9306
:1021A000112311F480E008C0CE010596BE016D5FD9
:1021B0007F4F40E00E949D0D26960FB6F894DEBF3B
:1021C0000FBECDBFCF91DF911F910895BF92CF92E7
:1021D000DF92EF92FF920F931F93CF93DF93FC0157
:1021E0007A018B01C081D1814230510561057105B1
:1021F00008F4B3C08F89988DA98DBA8D48175907F7
:102200006A077B0708F0A9C08881823009F45AC0A8
:10221000833009F47CC0813009F09FC06A01D694F4
:10222000C794C40ED51EA601452F5527469560E0DC
:1022300070E08BA19CA1ADA1BEA1480F591F6A1FE0
:102240007B1FCE010E94A10C882309F08BC0F601F0
:10225000F170EC0FFD1FB3A80894C11CD11CA6019E
:10226000452F5527469560E070E08BA19CA1ADA15C
:10227000BEA1480F591F6A1F7B1FCE010E94A10CEF
:10228000882309F06FC06B2D70E08FEF91E0C822BA
:10229000D922CC0DDD1D9BA980E0682B792BC701CD
:1022A00081709070892B39F0E4E076956795EA9516
:1022B000E1F79B0129C09B0140E050E03F70407076
:1022C000507054C07727612F502F4F2D8BA19CA1A8
:1022D000ADA1BEA1480F591F6A1F7B1FCE010E94EE
:1022E000A10C882309F03EC0EE0CFF1C001F111F3B
:1022F000C7019170FE01E80FF91F34A920E083A9FE
:1023000090E0822B932B9C0140E050E02FC037E0FF
:1023100076956795579547953A95D1F78BA19CA1EE
:10232000ADA1BEA1480F591F6A1F7B1FCE010E949D
:10233000A10C8823B9F422E0EE0CFF1C001F111F32
:102340002A95D1F7C7019170C3968C0F9D1F0E94EB
:10235000820B9B01AC015F7009C021E030E040E0DE
:1023600050E004C02FEF3FEF4FEF5FEFB901CA011C
:10237000DF91CF911F910F91FF90EF90DF90CF9061
:10238000BF9008952F923F924F925F926F927F92EB
:102390008F929F92AF92BF92CF92DF92EF92FF9275
:1023A0000F931F93CF93DF932C013A014B01FC0154
:1023B000C081D1814030F0E05F07F0E26F07F0E0CC
:1023C0007F0708F0D8C0DB01CA018F719070A07040
:1023D000B0700097A105B10509F0CDC0F2014687A4
:1023E0005787608B718BE680F78000851185E1143B
:1023F000F1040105110551F58881833040F08FA16A
:1024000098A5A9A5BAA50097A105B105E9F4A4016D
:10241000930165E056954795379527956A95D1F7CD
:102420008F819885A0E0B0E0281739074A075B073D
:1024300008F0A1C08FA198A5A9A5BAA5F201868B25
:10244000978BA08FB18F6FC07C018D0189859A8594
:102450005C01CC24DD2499E0AA0CBB1CCC1CDD1C47
:102460009A95D1F7120126C0C101B801A7010E94B7
:10247000E6107B018C016F3FFFEF7F07FFEF8F07B7
:10248000FFEF9F0711F481E077C082E0E816F104C6
:102490000105110508F46FC08F89988DA98DBA8D3B
:1024A000E816F9060A071B0708F065C06A187B08DA
:1024B0008C089D086A147B048C049D04A8F68EEF9A
:1024C000A82E8FEFB82E8FEFC82E8FEFD82EAE0C20
:1024D000BF1CC01ED11E8F89988DA98DBA8D029701
:1024E000A109B109A816B906CA06DB0628F020E042
:1024F00030E040E050E012C029853A8540E050E0ED
:10250000C601B5010E94712B9B01AC018BA59CA556
:10251000ADA5BEA5280F391F4A1F5B1FF201268BF0
:10252000378B408F518FF201E28AF38A048B158B2F
:1025300026893789408D518D211531054105510579
:10254000D1F0D401C30119E0B695A7959795879569
:102550001A95D1F7820F931FA41FB51F868B978BF7
:10256000A08FB18FC3019170C396C80FD91FD38FAD
:10257000C28F80E001C082E0DF91CF911F910F9167
:10258000FF90EF90DF90CF90BF90AF909F908F9093
:102590007F906F905F904F903F902F9008957F9223
:1025A0008F929F92AF92BF92CF92DF92EF92FF9263
:1025B0000F931F93CF93DF93EC016A017B014801D6
:1025C0005901423051056105710508F4DFC08F895A
:1025D000988DA98DBA8D481759076A077B0708F0AF
:1025E000D5C08881823009F472C0833009F491C06B
:1025F000813009F0CBC08A0116950795040F151F8D
:10260000A801452F5527469560E070E08BA19CA15D
:10261000ADA1BEA1480F591F6A1F7B1FCE010E94AA
:10262000A10C782E882309F0B3C0D801B1700F5FD8
:102630001F4F91E0C922DD24C114D10451F0FE01E5
:10264000EA0FFB1F83A98F70982D9295907F982B8E
:1026500001C0982DAC0FBD1FD3969C9381E08B8356
:10266000A801452F5527469560E070E08BA19CA1FD
:10267000ADA1BEA1480F591F6A1F7B1FCE010E944A
:10268000A10C782E882309F083C08FEFE82E81E01B
:10269000F82EE022F122CD2849F004E0B694A79468
:1026A000979487940A95D1F7E82D0BC0FE01EE0DA3
:1026B000FF1DE3A9E07FBB27AB2D9A2D892D8F70DD
:1026C000E82BEC0EFD1ED701D396EC935CC0452F92
:1026D000562F672F77278BA19CA1ADA1BEA1480FD4
:1026E000591F6A1F7B1FCE010E94A10C782E8823E0
:1026F00009F04EC0CC0CDD1CEE1CFF1CF601F17085
:10270000DE01AE0FBF1FD3968C92D397FD0194AA22
:102710003AC0F7E07695679557954795FA95D1F7C2
:102720008BA19CA1ADA1BEA1480F591F6A1F7B1FA1
:10273000CE010E94A10C782E882351F58FEF9FEFD8
:10274000AFEFBFE088229922AA22BB22E2E0CC0CA4
:10275000DD1CEE1CFF1CEA95D1F7860111700D5CA3
:102760001F4F0C0F1D1FC8010E94820B60707070FC
:102770008070907F862A972AA82AB92AC801B501B5
:10278000A4010E94AE0B81E08B8302C072E0772E21
:10279000872DDF91CF911F910F91FF90EF90DF90E8
:1027A000CF90BF90AF909F908F907F9008954F9261
:1027B0005F926F927F928F929F92AF92BF92CF92D1
:1027C000DF92EF92FF920F931F93CF93DF938C01D1
:1027D0002A013B01FC01C081D181411551056105F0
:1027E000710599F48B849C84AD84BE84811491041A
:1027F000A104B10451F18F89988DA98DBA8D8816E5
:102800009906AA06BB0608F525C00E94E6109B01A2
:10281000AC01623071058105910508F4EEC06F3F8F
:10282000FFEF7F07FFEF8F07FFEF9F0709F4F3C06C
:102830008F89988DA98DBA8D281739074A075B07AC
:1028400008F4E9C05301420105C061E0862E912CD5
:10285000A12CB12C8F859889A989BA890097A105E7
:10286000B10509F4D4C084149504A604B70409F092
:102870004AC0750164010894C11CD11CE11CF11C03
:102880008F89988DA98DBA8DC816D906EA06FB06E0
:1028900028F052E0C52ED12CE12CF12CC801B70153
:1028A000A6010E94E6109B01AC0161307105810513
:1028B000910509F4B0C02F3F8FEF38078FEF48071D
:1028C0008FEF580709F4A7C02115310541055105BF
:1028D000A9F02B853C854D855E852230310541056B
:1028E000510588F08F89988DA98DBA8D28173907E1
:1028F0004A075B0740F449015A0105C0C114D104DD
:10290000E104F104E9F5750164010894C11CD11CCE
:10291000E11CF11C8F89988DA98DBA8DC816D90636
:10292000EA06FB0660F0E2E08E169104A104B10411
:1029300008F46DC042E0C42ED12CE12CF12CC8016A
:10294000B701A6010E94E6109B01AC01611571055B
:1029500081059105A9F0613071058105910509F4A2
:102960005AC06F3FFFEF7F07FFEF8F07FFEF9F0713
:1029700009F451C0C814D904EA04FB0431F647C075
:10298000CE01B701A6010FEF1FEF2FEF3FEF0E941F
:10299000CF12882381F5411451046104710449F078
:1029A000CE01B301A201970186010E94CF128823B4
:1029B00011F5CB86DC86ED86FE862F853889498920
:1029C0005A898F89988DA98DBA8D0297A109B1096D
:1029D00082179307A407B50740F0215030404040CC
:1029E00050402F87388B498B5A8B8C8181608C8328
:1029F000A701960110C0813029F021E030E040E0CD
:102A000050E009C02FEF3FEF4FEF5FEF04C020E031
:102A100030E040E050E0B901CA01DF91CF911F9151
:102A20000F91FF90EF90DF90CF90BF90AF909F906D
:102A30008F907F906F905F904F9008952F923F926C
:102A40004F925F926F927F928F929F92AF92BF92BE
:102A5000CF92DF92EF92FF920F931F93DF93CF936A
:102A600000D000D000D0CDB7DEB72C015B01DC0177
:102A70006D907C9011971E968D919D910D90BC91BB
:102A8000A02D8096A11DB11D89839A83AB83BC8341
:102A900080509040A042B04038F0D20156961D922E
:102AA0001D921D921C925997F20126893789408DFB
:102AB000518D211531054105510509F47CC08981ED
:102AC0009A81AB81BC819170A070B0700097A10514
:102AD000B10509F04CC12F5F3F4F4F4F5F4FD201FF
:102AE00056962D933D934D935C9359975296ED9046
:102AF000FD900D911C915597E114F104010511050C
:102B0000B1F429813A814B815C81A5E056954795C6
:102B100037952795AA95D1F7F30187819085A0E095
:102B2000B0E0281739074A075B07F0F520C1F30129
:102B3000818592850197A0E0B0E029813A814B819F
:102B40005C81F9E05695479537952795FA95D1F729
:102B500082239323A423B5230097A105B10509F08F
:102B600006C1C201B801A7010E94E6106B017C01F9
:102B7000623071058105910508F40CC16F3F2FEF9C
:102B800072072FEF82072FEF920709F405C1F301B7
:102B90008789908DA18DB28DC816D906EA06FB06ED
:102BA00008F4A5C0AB2849F4D20156961D921D9297
:102BB0001D921C92599784E0F0C0F201428953891A
:102BC00064897589C2010E94D7136B017C0161156C
:102BD00071058105910511F487E0DFC06130710551
:102BE0008105910509F4D6C06F3F2FEF72072FEFD3
:102BF00082072FEF920709F4CFC0C3010E944B0C4C
:102C0000882309F0C9C0EEEF8E2EEFEF9E2EEFEF76
:102C1000AE2EEFEFBE2E8C0C9D1CAE1CBF1CF30124
:102C20008789908DA18DB28D0297A109B10988166F
:102C30009906AA06BB0620F088249924540116C0E0
:102C4000D30119962D913C911A9740E050E0C501AF
:102C5000B4010E94712B4B015C01F30183A594A583
:102C6000A5A5B6A5880E991EAA1EBB1ED3019F96C8
:102C70008D929D92AD92BC92D29773E3272E312C08
:102C8000260C371C80E092E0F1019C01119221504A
:102C90003040E1F71E821D8205C08D819E81019624
:102CA0009E838D83D30119968D919C911A97ED8106
:102CB000FE81E817F90780F49F0140E050E0280DFD
:102CC000391D4A1D5B1D11968C91B10101E010E088
:102CD0000E94560B882309F3D30119968D919C917C
:102CE0001A97ED81FE81E817F90709F055C0D20166
:102CF0005296CD92DD92ED92FC9255978EEF9FEF1A
:102D0000AFEFBFEF8C0D9D1DAE1DBF1D7C018D0172
:102D1000F3018789908DA18DB28D0297A109B10928
:102D2000E816F9060A071B0728F020E030E040E02B
:102D300050E016C0D30119962D913C911A9740E0AE
:102D400050E0C801B7010E94712B9B01AC01F30157
:102D500083A594A5A5A5B6A5280F391F4A1F5B1FFB
:102D6000D20156962D933D934D935C93599789814B
:102D70009A81AB81BC81F20186879787A08BB18B4A
:102D800089819A819170C396680E791E738E628EC6
:102D900080E003C082E001C081E026960FB6F8947F
:102DA000DEBF0FBECDBFCF91DF911F910F91FF907E
:102DB000EF90DF90CF90BF90AF909F908F907F90DB
:102DC0006F905F904F903F902F9008954F925F9239
:102DD0006F927F928F929F92AF92BF92CF92DF922B
:102DE000EF92FF920F931F93CF93DF93EC015B0160
:102DF00068807980FB0180818F3279F08C3569F0B1
:102E0000F30183899489A589B6898E839F83A887D6
:102E1000B9870DC00894A11CB11CF50180818F32C7
:102E2000C9F38C35B9F31E821F8218861986F50105
:102E30008081803238F09CE1492E512C4C0E5D1E71
:102E400005E00BC080E88FA3CE0140E050E060E0D9
:102E500070E00E94C211182FEAC0C20160E270E067
:102E60004BE050E00E94DC2BF50180818E3241F076
:102E7000CC24DD24EE24FF2488E0882E912C29C068
:102E8000DE0180E090E0F501E80FF91FE081019696
:102E9000EE3249F411968330910509F4C5C05B9672
:102EA000EC935B97F0CFEF3229F0EC3539F0E1325B
:102EB00008F0BAC0E13210F424E201C020E2A80E0A
:102EC000B91E2FA3C6C018E0C12ED12CBBE08B2E9B
:102ED000912CF501EE0DFF1D10810894E11CF11CF1
:102EE000113208F43FC01F3221F4F501EE0DFF1D31
:102EF00007C01C3559F4F9CF0894E11CF11C319638
:102F000080818F32C9F38C35B9F32CC01E3219F091
:102F1000C814D90440F0FBE08F16910409F484C072
:102F20001E3289F281C017FF07C0E12FF0E0EF7772
:102F3000F070E75BFE4F108189E690E0612F70E052
:102F40000E94E32B009709F06FC0812F81568A31D0
:102F500008F41052FE01EC0DFD1D148F0894C11CE5
:102F6000D11CB7CFCD2809F45FC08C8D853E09F404
:102F70000C8FAE0CBF1C113230F0F5018081813214
:102F800010F080E001C084E08FA363C04E895F89A8
:102F9000688D798DC7010E94A10C182F8823D9F460
:102FA000EA8DFB8D8081882311F414E014C08385A1
:102FB0008F738C83838583FD08C0CF01B2014BE002
:102FC00050E00E94C62B009731F0CE0160E070E027
:102FD0000E941E1547C08FA1112391F0143039F5BE
:102FE00090E09C012470307085FF07C0232B09F40A
:102FF00034CF80E88FA310E01AC0232BB9F017C09C
:1030000082FD15C08C8184FF11C06E857F85717033
:103010006D5C7F4F660D771DC3010E94C50B6E83EB
:103020007F838887998719CF16E001C015E0812F2B
:10303000DF91CF911F910F91FF90EF90DF90CF9094
:10304000BF90AF909F908F907F906F905F904F90C8
:103050000895E880F980CE0140E050E060E070E043
:103060000E94C211182F882309F490CFB4CFDF92A9
:10307000EF92FF920F931F93DF93CF93CDB7DEB7FD
:10308000AA970FB6F894DEBF0FBECDBF9AA789A747
:103090007B01CE0189968E010F5F1F4FB80140E082
:1030A0000E949D0DD82E882309F066C069A57AA5D7
:1030B000C8010E94E616D82E882309F05DC088A5B5
:1030C00087FF03C026E0D22E57C0E114F10409F4B3
:1030D00053C0F70111868F89988DA98DBA8D0097FD
:1030E000A105B10509F448C080E090E0A0E0B0E09F
:1030F0003EE2EB8DFC8DE80FF91F20810196203216
:1031000081F0253009F425EE8930910529F4F70185
:10311000EA0FFB1F31871196F701EA0FFB1F21878A
:1031200011968B30910529F7AE0DBF1D19961C9293
:103130000B8D1C8DF80183858F73F7018087C80183
:103140004C960E94820BF701608371838283938384
:10315000F801978980E0268930E0822B932BF701D4
:1031600097838683F801918D80E0208D30E0822B5B
:10317000932BF701958384838D2DAA960FB6F8942F
:10318000DEBF0FBECDBFCF91DF911F910F91FF909A
:10319000EF90DF9008956F927F928F929F92BF92EF
:1031A000CF92DF92EF92FF920F931F93DF93CF9313
:1031B00000D0CDB7DEB76C01BE016F5F7F4F0E94BC
:1031C000200CB82E882309F0CAC0D6011E968C9117
:1031D00086FFC5C00E9445203B014C01F601448D8D
:1031E000558D668D778D89819A810E94A10CB82EAC
:1031F000882309F0B4C0D60190960D911C91919747
:10320000F801838580628387ED91FC911197169672
:103210002D913D914D915C911997D8015A962C931F
:103220005A975B963C938081833031F4CA01AA2778
:10323000BB27F801848B958BD6011A964D915D9131
:103240006D917C911D97C8014C960E94AE0BC801F0
:103250004696B401A3010E94AE0BF801128A138AAC
:10326000E980FA8081E0D70113968C93C7010E9410
:103270004B0CB82E882309F06BC0F7018081833096
:1032800009F05BC08481813009F057C087010D5C73
:103290001F4F80E092E0D801FC011D923197E9F7C1
:1032A00021E332E0E20EF31E85E5D7018D937D0127
:1032B0008AEA8C93EEECFDEFEE0EFF1EC80142E5AC
:1032C00052E561E671E40E94AE0BC701895E9D4F35
:1032D00042E752E761E471E60E94AE0BD7011F9608
:1032E0004D915D916D917C915297C701855E9D4F87
:1032F0000E94AE0BF7014385548565857685C7012D
:10330000815E9D4F0E94AE0BD7015F962D913D913E
:103310004D915C9192972F5F3F4F4F4F5F4FF70159
:1033200027A730AB41AB52AB8181B80101E010E07F
:103330000E94560BD70114961C92F701818160E020
:1033400040E050E00E944D0B882311F0BB24B39461
:10335000D6011E968C911E978F7B1E968C938B2D7B
:103360000F900F90CF91DF911F910F91FF90EF90F1
:10337000DF90CF90BF909F908F907F906F90089537
:103380000F931F93DF93CF9300D0CDB7DEB78C019F
:103390000E94CB18882359F4C801BE016F5F7F4F8C
:1033A0000E94200C882319F4F801118210820F90DA
:1033B0000F90CF91DF911F910F9108952F923F921F
:1033C0004F925F926F927F928F929F92AF92BF9235
:1033D000CF92DF92EF92FF920F931F93DF93CF93E1
:1033E000CDB7DEB729970FB6F894DEBF0FBECDBFBD
:1033F0005C01162F072F1A013F832E83D9011D92DE
:103400001C928887B986BE016F5F7F4F0E94200C97
:103410008D83882309F0CFC1F501F785FD83FF2354
:1034200009F0C9C1D5011E968C9181FD03C0B7E09A
:10343000BD83C1C1F5012089318942895389C10108
:10344000A0E0B0E0820F931FA41FB51F821793075F
:10345000A407B50718F4190120943094812F902FF8
:103460009C013C832B839CC1D50150962D913D91AD
:103470004D915C915397DA01C9019170A070B070C1
:103480000097A105B10509F024C1DA01C90119E0CD
:10349000B695A795979587951A95D1F7E981FA8101
:1034A0006184728408946108710868227922611429
:1034B000710409F052C0211531054105510589F407
:1034C000F50126813781408551852115310541055A
:1034D0005105D1F48885998540E050E060E070E0C6
:1034E00009C0D50154964D915D916D917C9157978E
:1034F000888599850E94D7139B01AC0161157105E0
:103500008105910509F450C121303105410551056E
:1035100011F482E0F2C02F3FFFEF3F07FFEF4F07AC
:10352000FFEF5F0731F481E0D5011F968C938D8307
:1035300042C1F501248B358B468B578B8681978151
:10354000A085B1850097A105B10539F4D50116967E
:103550002D933D934D935C931997E981FA8127A5AB
:1035600030A941A952A9D5015896ED90FD900D9131
:103570001C915B972E153F054007510731F4CF0191
:103580000E944B0C882309F0B7C049805A80D501AE
:1035900054962D913D914D915C915797225030401A
:1035A00040405040F2018789908DA18DB28D0297E5
:1035B000A109B109281739074A075B07B8F4018543
:1035C0001285B80180E090E00E94712B9B01AC0154
:1035D000F20183A594A5A5A5B6A5280F391F4A1FFA
:1035E0005B1F211531054105510511F482E09CCF87
:1035F0006301EE24FF24C20ED31EE41EF51E41011A
:10360000892C992486948114910409F443C0C4013F
:10361000860D971D0817190718F448018618970892
:10362000F20181816B817C81A701960184010E9456
:10363000560B882309F077CFE981FA8127A530A9B5
:1036400041A952A92C193D094E095F09C401A0E006
:10365000B0E0281739074A075B07B8F4A9E0220F42
:10366000331F441F551FAA95D1F78B819C81820F70
:10367000931FDF01D396FC0180E092E001900D9250
:103680000197E1F7E981FA8113828401102F002765
:10369000110F56C0F50120893189428953898285ED
:1036A0009385A485B585281739074A075B0760F01D
:1036B000C2010E944B0C882309F035CFE981FA81C1
:1036C000C7A6D0AAE1AAF2AAF501C08ED18EE28ED9
:1036D000F38ED5015096ED90FD900D911C9153976E
:1036E00058964D915D916D917C915B9789819A81FE
:1036F0000E94A10C882321F081E0F501878717CF74
:10370000C701917020E032E0281B390B810122159E
:10371000330508F48901D50150968D919C915197FC
:103720009170C39629813A81280F391FC9016B8195
:103730007C81A8010E94D32BE981FA81B1E0B38397
:10374000201A310AEE81FF8180819181800F911FC3
:10375000918380832B813C81200F311F3C832B83FD
:10376000C801A0E0B0E0F501208931894289538980
:10377000820F931FA41FB51F808B918BA28BB38BDD
:10378000228533854485558582179307A407B5079D
:1037900010F4DA01C901F50182879387A487B58700
:1037A0002114310409F060CED5011E968C911E972C
:1037B00080641E968C938D8129960FB6F894DEBF97
:1037C0000FBECDBFCF91DF911F910F91FF90EF9072
:1037D000DF90CF90BF90AF909F908F907F906F9031
:1037E0005F904F903F902F9008952F923F924F926D
:1037F0005F926F927F928F929F92AF92BF92CF9281
:10380000DF92EF92FF920F931F93DF93CF93CDB789
:10381000DEB729970FB6F894DEBF0FBECDBF5C01AF
:10382000162F072F1A013F832E83F9011182108270
:103830008887B986BE016F5F7F4F0E94200C8D8301
:10384000882309F04DC1F501F785FD83FF2309F0B9
:1038500047C1F501868580FD03C0F7E0FD8340C1C7
:10386000F501228533854485558580899189A28912
:10387000B389281B390B4A0B5B0BC101A0E0B0E0F8
:10388000281739074A075B0708F41901812F902F81
:103890009C013C832B8320C1F50120893189428919
:1038A0005389DA01C9019170A070B0700097A10529
:1038B000B10509F0C7C0DA01C90169E0B695A7955D
:1038C000979587956A95D1F7E981FA8101851285E7
:1038D00001501040082319230115110561F5211528
:1038E00031054105510531F4F50166817781808507
:1038F000918509C0F501448955896689778988854C
:1039000099850E94E610623071058105910508F4E1
:1039100041C06F3FFFEF7F07FFEF8F07FFEF9F076C
:1039200029F481E0F50187878D83DAC0F501648B86
:10393000758B868B978B49805A80F5012489358950
:10394000468957892250304040405040F2018789D3
:10395000908DA18DB28D0297A109B1092817390761
:103960004A075B07B8F481849284B40180E090E058
:103970000E94712B9B01AC01F20183A594A5A5A522
:10398000B6A5280F391F4A1F5B1F211531054105B8
:10399000510511F482E0C6CF6801EE24FF24C20E67
:1039A000D31EE41EF51E3101672C77246694611442
:1039B000710409F442C0C301800F911F8816990653
:1039C00018F43401601A710AF20181816B817C81E3
:1039D000A701960183010E94650B882309F0A1CFFE
:1039E000E981FA818381882319F127A530A941A9AA
:1039F00052A92C193D094E095F09C301A0E0B0E0AE
:103A0000281739074A075B0798F499E0220F331FFC
:103A1000441F551F9A95D1F78B819C81820F931F6C
:103A2000DC01F39680E092E001900D920197E1F7BE
:103A30008301102F0027110F2FC0F501C08ED18EEA
:103A4000E28EF38EF501E088F18802891389408DBA
:103A5000518D628D738D89819A810E94A10C88237A
:103A600009F05FCFC701917020E032E0281B390BCD
:103A700081012215330508F48901F50180899189B6
:103A80009170C39629813A81280F391F8B819C81BF
:103A9000B901A8010E94D32B201A310AEE81FF81BF
:103AA00080819181800F911F918380832B813C8144
:103AB000200F311F3C832B83980140E050E0F5013B
:103AC00080899189A289B389820F931FA41FB51F92
:103AD000808B918BA28BB38B2114310409F0DCCE47
:103AE0008D8129960FB6F894DEBF0FBECDBFCF9162
:103AF000DF911F910F91FF90EF90DF90CF90BF90DB
:103B0000AF909F908F907F906F905F904F903F907D
:103B10002F9008952F923F924F925F926F927F92D3
:103B20008F929F92AF92BF92CF92DF92EF92FF92CD
:103B30000F931F93DF93CF93CDB7DEB7E5970FB603
:103B4000F894DEBF0FBECDBF1C017CA76BA700970A
:103B500019F449E0B42E4DC24F734DA7CE018B9698
:103B6000BE016F5F7F4F0E949D0D882309F080C2C8
:103B700089819A819C838B836BA57CA5CE0103965A
:103B80000E94E616B82E882329F48AA587FF02C072
:103B900036E0B32E8DA5282F30E0C9018C719070CE
:103BA000892B09F414C1BB2009F44CC094E0B91668
:103BB00009F05AC2EB80FC808E010D5F1F4FC801D7
:103BC00040E050E060E070E00E94C211B82E88230F
:103BD000D9F4498D5A8D6B8D7C8DC7010E94A10C43
:103BE000B82E882389F4ED8DFE8DE081E53E09F441
:103BF00041C2EE2309F43EC2C80161E070E00E94B8
:103C00001E15B82E882329F3A4E0BA1609F02CC299
:103C100028C2ED8DFE8D80E2DF011D928A95E9F7C5
:103C20002D8D3E8DC901DC01FE017F968BE0019058
:103C30000D928150E1F781E0F7018383FDA5F860E3
:103C4000FDA706C08F81817109F00BC222FDEBC177
:103C50008DA583FFC9C00E9445207B018C018D8DFD
:103C60009E8D0E96B801A7010E94AE0B8D8D9E8D84
:103C70004696B801A7010E94AE0B0D8D1E8D89815D
:103C80009A81B8010E94C50B3B014C0180E2D8012A
:103C90001B968C93E981FA81AD8DBE8D5A961C924C
:103CA0005A975B961C925B978081833029F45496D7
:103CB0001C92549755961C928D8D9E8D4C9640E08B
:103CC00050E060E070E00E94AE0BE981FA8181E093
:103CD0008383611471048104910409F485C087A56C
:103CE00090A9A1A9B2A98EA79FA7A8ABB9AB4B80F9
:103CF0005C8092E0691671048104910408F472C139
:103D0000F2018789908DA18DB28D681679068A0699
:103D10009B0608F067C153018401CE010396A501FB
:103D2000B8010E94E6106B017C01611571058105E7
:103D3000910509F47EC1613071058105910509F491
:103D400051C18FEFC8168FEFD8068FEFE8068FEFBF
:103D5000F80609F46BC1C201A501B80100E010E04A
:103D600020E030E00E94CF12B82E882309F03CC139
:103D7000D2011F962D913D914D915C91529757968E
:103D80008D919D910D90BC91A02D0297A109B10933
:103D9000281739074A075B0760F42F5F3F4F4F4FE3
:103DA0005F4FF2012787308B418B528B848181607A
:103DB0008483F2018789908DA18DB28DC816D906B2
:103DC000EA06FB0608F035C156018701A6CFBB20E5
:103DD00009F04AC18F8184FF03C024E0B22E04C1E0
:103DE00021FF02C080FD3DC1FDA5F3FF02C0F064CC
:103DF000FDA7E980FA80F70187A590A9A1A9B2A93A
:103E0000F101848F958FA68FB78F0D8D1E8D11A315
:103E100000A3C701B8010E94C50BD62EC72EB82E2D
:103E2000A92ED10116966C93169717967C93179727
:103E300018968C93189719969C93C8014C960E94DB
:103E4000820B8B019C01F1016287738784879587C0
:103E5000F182E082D70115968D919C9116979383FC
:103E60008283BDA5B6871786108E118E128E138E93
:103E7000D10150961D921D921D921C925397BDA583
:103E8000B5FFB6C0011511052105310509F4B0C013
:103E9000008B118B228B338BD70119968D919C91BE
:103EA0001A973C018824992499E0660C771C881C99
:103EB000991C9A95D1F78D2D9C2DAB2DBA2DAC0167
:103EC000BD0178018901610188279927DC018619E4
:103ED0009709A809B9098AAB9BABACABBDAB22C0B3
:103EE000C6010E94E610AB01BC01423051056105DC
:103EF000710518F482E0B82E01C0BB244F3F9FEF3C
:103F000059079FEF69079FEF790711F4BB24B3941A
:103F10008AA99BA9ACA9BDA9E80EF91E0A1F1B1FFF
:103F2000BB2031F46E147F0480069106C8F2BB24D6
:103F3000D10154964D935D936D937C935797BB201D
:103F400009F095C0D801C7019170A070B0700097BA
:103F5000A105B10509F44DC0C980DA80BEEF6B2E12
:103F6000BFEF7B2EBFEF8B2EBFEF9B2E640E751E17
:103F7000861E971EF6018789908DA18DB28D0297BE
:103F8000A109B109681679068A069B0658F52185AC
:103F9000328540E050E0C401B3010E94712B9B01C7
:103FA000AC01F60183A594A5A5A5B6A5280F391FD8
:103FB0004A1F5B1F211531054105510599F0A9E004
:103FC00016950795F794E794AA95D1F72E0D3F1D06
:103FD000401F511FD10158962D933D934D935C93F3
:103FE0005B9707C0F2E0BF2EF1011182108201C081
:103FF000BB248B2DE5960FB6F894DEBF0FBECDBF68
:10400000CF91DF911F910F91FF90EF90DF90CF90B4
:10401000BF90AF909F908F907F906F905F904F90E8
:104020003F902F900895E8E0BE2EDECFBB24B394DE
:10403000DBCF89819A814EA55FA568A979A90E94E5
:10404000A10CB82EE981FA810894610871088108F1
:1040500091086386748685869686882309F4C4CE83
:10406000C3CF77E0B72EC0CFBB2019F2BDCF8B2DC9
:10407000B82EBACF498D5A8D6B8D7C8DC7010E94A9
:10408000A10CB82E882381F7C4CD60E070E08CEFDE
:1040900092E408951F920F920FB60F9211242F935E
:1040A0003F934F935F936F937F938F939F93AF93C0
:1040B000BF93EF93FF9380912E0490912F0401966C
:1040C00090932F0480932E040E944A0BFF91EF914E
:1040D000BF91AF919F918F917F916F915F914F9120
:1040E0003F912F910F900FBE0F901F9018950F9337
:1040F0001F93DF93CF93CDB7DEB76D970FB6F894CC
:10410000DEBF0FBECDBF0E949E008E01065F1F4F17
:10411000C80168E770E00E94EE2B80E060E00E943A
:104120009400C8010E948700C80166E870E00E9400
:10413000EE2B80E061E00E949400C8010E9487009D
:104140008E010F5F1F4F60E071E080E090E042E081
:104150000E94F800C8010E946307883C910598F707
:104160000E949E008E01065F1F4FC80162E970E049
:104170000E94EE2B80E060E00E949400C8010E9443
:104180008700C80161EA70E00E94EE2B80E061E0E8
:104190000E949400C8010E94870060E072E080E005
:1041A00090E042E00E9491016D960FB6F894DEBF58
:1041B0000FBECDBFCF91DF911F910F9108952F9228
:1041C0003F924F925F926F927F928F929F92AF92A7
:1041D000BF92CF92DF92EF92FF920F931F93DF93E4
:1041E000CF93CDB7DEB7C156D0400FB6F894DEBF3F
:1041F0000FBECDBF0E944F0A81E00E94020885B524
:104200008F6085BD8EE483BD89B7806889BF78944F
:1042100080E00E94740B60E271EA87E090E00E9407
:1042200065050E94AE000E94A600D798DF9A8E0115
:104230000A5E1F4FC8016DEA70E00E94EE2B0E94DB
:104240009E0080E060E00E949400C8010E94870008
:1042500080E593EC28EC30E0F9013197F1F7019714
:10426000D9F785EE91E06AEB70E041E00E94A21080
:10427000182F84EF91E028EC30E0F9013197F1F745
:104280000197D9F73EC00E949E0080E060E00E9446
:1042900094008BEB90E00E94870000D000D000D00B
:1042A000EDB7FEB73196ADB7BEB71296DC92CE929F
:1042B0001197F382E282148315820E94F52BEDB7E9
:1042C000FEB736960FB6F894FEBF0FBEEDBF80E086
:1042D00061E00E949400C6010E94870080E49CE98E
:1042E000F1013197F1F70197D9F780E00E94740B43
:1042F00085EE91E06AEB70E041E00E94A210182F79
:104300000CC076E1C72ED12CCC0EDD1E69ECE62E5A
:1043100060E0F62E58EC252E312C112309F0B3CF96
:1043200000E010E04AE0C42ED12CCC0EDD1E36EDAC
:10433000232E30E0332E00D000D000D0EDB7FEB7F2
:104340003196ADB7BEB71296DC92CE9211973382FA
:104350002282158304830E94F52BEDB7FEB73696B3
:104360000FB6F894FEBF0FBEEDBF82E394E0B60136
:1043700046E00E948A1DE82E82E394E00E94CB185A
:104380000F5F1F4F0A30110589F40E949E0080E0E4
:1043900060E00E94940083EE90E00E94870080E03D
:1043A00061E00E9494008EEE90E054C1EE2019F678
:1043B0000E947720CF99FECF8E010A5E1F4FC80161
:1043C00067EF70E00E94EE2B0E949E0080E060E0AC
:1043D0000E949400C8010E94870080E061E00E9472
:1043E000940085E091E00E94870080E49CE928EC3D
:1043F00030E0F9013197F1F70197D9F700E010E0CB
:10440000A0961FAE1EAEA0976E961FAE1EAE6E9704
:10441000CE018A96A2969FAF8EAFA29703C1CE011E
:1044200001960E94630726EFC22E2FEFD22EC80EF0
:10443000D91E92E8C916D10408F093C0B1018827AB
:1044400077FD8095982F0E9477292BED3FE049EC6E
:1044500050E40E943C2A20E030E040E051E40E9419
:104460003C2A20E030E040E05BE30E943C2A7B01F4
:104470008C0162E870E06C197D0980E090E00E9498
:1044800075292B013C01B701C8010E9446294B0147
:104490005C01B701C8010E949F2A6B017C01ADB786
:1044A000BEB71A970FB6F894BEBF0FBEADBF0DB71B
:1044B0001EB70F5F1F4FEAE2F0E0EC0FFD1F1296F0
:1044C000FC93EE931197E3E1F1E0D8011396FC938E
:1044D000EE931297C301B201A50194010E943C2AF8
:1044E0000E944929D80115967C936E931497C301B5
:1044F000B201A70196010E943C2A0E944929F801B5
:10450000778366836E968EAD9FAD6E979187808719
:104510000E94F52BA296EEADFFADA2970190002070
:10452000E9F73197A296AEADBFADA297EA1BFB0BA0
:104530008DB79EB70A960FB6F8949EBF0FBE8DBF7B
:1045400082E394E0BE01665D7F4FAF0120E334E07B
:104550000E94DE1982E394E00E94CB1800E010E094
:1045600002C00F5F1F4F68E070E080E090E041E024
:104570000E9491010894211C311C91E429163104F8
:1045800009F04DCFA096AEADBFADA0971196A09605
:10459000BFAFAEAFA09700D000D000D0EDB7FEB750
:1045A000319686E190E08C0F9D1FADB7BEB7129695
:1045B0009C938E931197ADE1B1E0B383A283A09653
:1045C0008EAD9FADA097958384830E94F52BADB7E8
:1045D000BEB716960FB6F894BEBF0FBEADBF0E9411
:1045E0009E0080E061E00E949400CE0146960E9409
:1045F000870060E074E080E090E042E00E9491017A
:10460000A096EEADFFADA097749781F06E968EAD3B
:104610009FAD6E9703966E969FAF8EAF6E970832E2
:10462000110520F481E0282E312CF9CE82E394E0AC
:104630000E94C0190E949E0080E060E00E949400E9
:104640008CE291E00E94870080E061E00E9494008B
:1046500089E391E00E94870080E090E0CF59DF4F2E
:104660000FB6F894DEBF0FBECDBFCF91DF911F9183
:104670000F91FF90EF90DF90CF90BF90AF909F9001
:104680008F907F906F905F904F903F902F90089504
:104690006AE070E00E94902B7093DC016093DB0174
:1046A0002FEF2FB9779BFECF4FB14F3F31F0809165
:1046B000DB019091DC01892BA1F720E030E04F3F36
:1046C00011F421E030E0C9010895C4988FEF8FB94B
:1046D000779BFECF8FB184EF91E00E944823892B16
:1046E00019F021E030E008C0C49A8FEF8FB9779BB2
:1046F000FECF8FB120E030E0C9010895FC0184E1D4
:104700008093DA019FEF9FB9779BFECF8FB18F3FE8
:1047100029F48091DA018823B1F71FC08E3FE9F4B4
:104720009FEF9FB9779BFECF8FB180839FB9779B17
:10473000FECF8FB181836250704011F03296F1CF7D
:104740008FEF8FB9779BFECF8FB18FEF8FB9779BAC
:10475000FECF8FB121E030E002C020E030E0C9019F
:1047600008951F93CF93DF93EC01162F84EF91E010
:104770000E944823892B19F420E030E02BC01FB998
:10478000779BFECF8FB11D3F19F120E032E0888189
:104790008FB9779BFECF89818FB9779BFECF22504F
:1047A000304011F02296F3CF8FEF8FB9779BFECF79
:1047B0008FB18FEF8FB9779BFECF8FB18FEF8FB90E
:1047C000779BFECF8FB120E030E08F71853011F400
:1047D00021E030E0C901DF91CF911F910895DF9270
:1047E000EF92FF920F931F93D82E7A018B0187FFD0
:1047F0000CC087E340E050E060E070E00E94EF23EF
:10480000823008F052C08FE7D8228CE0D81661F0D1
:10481000C49A8FEF8FB9779BFECF8FB10E9465232B
:10482000892B11F48FEF41C08D2D80648FB9779B58
:10483000FECF8FB1812F9927AA27BB278FB9779BEE
:10484000FECF8FB1C801AA27BB278FB9779BFECFB8
:104850008FB1BB27A12F902F8F2D8FB9779BFECFC4
:104860008FB1EFB8779BFECF8FB1DD2011F485E9D2
:1048700006C088E0D81611F487E801C081E08FB93E
:10488000779BFECF8FB18CE0D81629F48FEF8FB9CC
:10489000779BFECF8FB19AE02FEF2FB9779BFECF9A
:1048A0008FB187FF02C09150C1F71F910F91FF9008
:1048B000EF90DF900895EF92FF920F931F93DF9395
:1048C000CF9300D000D0CDB7DEB71DB887B38F74BB
:1048D00087BB88B38F7488BB88B38C6088BB8AE041
:1048E0008093DA018091DA018823E1F78091480111
:1048F00081FDB5C088B3806388BB87B3806B87BBFD
:1049000092E59DB981E08EB99DB98AE09FEF9FB98C
:10491000779BFECF2FB18150D1F740E050E060E0AF
:1049200070E00E94EF23813009F07CC084E6809320
:10493000DA0188E04AEA51E060E070E00E94EF238B
:10494000813009F048C07E010894E11CF11C870108
:104950009FEF9E012B5F3F4F9FB9779BFECF8FB19B
:10496000F80181938F01E217F307B1F78B81813052
:1049700009F058C08C818A3A09F054C08091DA015C
:10498000882349F089EA40E050E060E070E40E944A
:10499000EF23882399F78091DA01882309F442C034
:1049A0008AE340E050E060E070E00E94EF2388235B
:1049B000C9F59FEF9FB9779BFECF8FB1F701819328
:1049C0007F01E017F107B1F7898186FD02C018E089
:1049D0002AC018E128C089EA40E050E060E070E0B9
:1049E0000E94EF23823018F001E011E002C009EAD2
:1049F00014E08091DA01882349F0802F40E050E0F4
:104A000060E070E00E94EF23882399F78091DA013B
:104A1000882341F080E140E052E060E070E00E94D5
:104A2000EF23811110E01093DD01C49A8FEF8FB94D
:104A3000779BFECF8FB1112341F0809148018E7F8B
:104A40008093480180E58DB90AC01DB887B38F7483
:104A500087BB88B38F7488BB88B38C6088BB809118
:104A600048010F900F900F900F90CF91DF911F9101
:104A70000F91FF90EF900895809148010895FF9263
:104A80000F931F93CF93DF938C01E901211531051B
:104A900011F484E03EC08091480180FF02C083E0B1
:104AA00038C08091DD0184FD07C0F9E0440F551F37
:104AB000661F771FFA95D1F7C230D10518F4E1E1EE
:104AC000FE2E02C032E1F32E8F2D0E94EF238823A9
:104AD000B1F4C80160E072E00E947E23892B29F0C6
:104AE000219719F000501E4FF4CF82E1F81639F4E7
:104AF0008CE040E050E060E070E00E94EF23C49A58
:104B00008FEF8FB9779BFECF8FB180E0CD2B09F06F
:104B100081E0DF91CF911F910F91FF900895CF9287
:104B2000DF92EF92FF920F931F93CF93DF936C016D
:104B3000E9012115310511F484E05FC0809148013D
:104B400080FF02C083E059C08091480182FF02C00B
:104B500082E053C08091DD0190E084FF03C07A01C0
:104B60008B0109C07A018B01A9E0EE0CFF1C001F2C
:104B7000111FAA95D1F7C130D10571F488E1B801B0
:104B8000A7010E94EF23882371F5C6016EEF0E94F2
:104B9000B123C0E0D0E023C08C709070892B31F03D
:104BA000AE0160E070E087E90E94EF2389E1B8017F
:104BB000A7010E94EF238823B1F4C6016CEF0E9485
:104BC000B123892B39F0219729F080E092E0C80EBB
:104BD000D91EF3CF80E090E06DEF0E94B123892BC6
:104BE00011F4C1E0D0E0C49A8FEF8FB9779BFECF6C
:104BF0008FB180E0CD2B09F081E0DF91CF911F9143
:104C00000F91FF90EF90DF90CF900895FF920F9358
:104C10001F93DF93CF93CDB7DEB760970FB6F894AD
:104C2000DEBF0FBECDBF982F8B018091480180FF62
:104C300002C023E002C3933309F450C1943380F4DB
:104C4000933009F4AFC0943028F49923F9F09130EF
:104C5000D9F42AC0973009F4AFC19233A9F439C10D
:104C6000963309F48CC1973330F4943309F44EC170
:104C7000953351F463C1983309F41DC2983308F495
:104C8000ACC1993309F486C224E0D7C20E946523DF
:104C9000AC01C49A8FEF8FB9779BFECF20E0452BF4
:104CA00009F0CAC221E0C8C289E040E050E060E0FB
:104CB00070E00E94EF23882309F06DC0CE010196B9
:104CC00060E170E00E947E23892B09F464C0898131
:104CD0008295869586958370288569857A85813049
:104CE00031F530E040E050E02F733070407050708C
:104CF000A901332722272F5F3F4F4F4F5F4F962F3A
:104D000080E0870F911DA0E0B0E0280F391F4A1FF7
:104D10005B1FAAE0220F331F441F551FAA95D1F72E
:104D2000D8012D933D934D935C93139732C06295B8
:104D300066956695637030E0220F331F220F331F94
:104D4000260F311D2F5F3F4F8F8190E08370907051
:104D5000982F8827990F990F280F391F40E050E0AE
:104D60008E818F706B85661F6627661F860F8E5F2C
:104D70007370770F870F90E0099704C0220F331FDD
:104D8000441F551F8A95D2F7F8012083318342834F
:104D9000538320E001C021E0C49A8FEF8FB9779B45
:104DA000FECF4AC28091DD01F82E83FF2FC08DE82F
:104DB00040E050E060E070E00E94EF23882309F0BB
:104DC00081C08FEF8FB9779BFECF8FB1CE01019657
:104DD00060E170E00E947E23892B09F473C080E3B8
:104DE0009FEF9FB9779BFECF2FB18150D1F72B85D5
:104DF00022952F7080E190E0A0E0B0E004C0880F21
:104E0000991FAA1FBB1F2A95D2F755C089E040E021
:104E100050E060E070E00E94EF23882309F052C068
:104E2000CE01019660E170E00E947E23892B09F497
:104E300049C04B858C85F2FE1BC0881F8827881FC0
:104E400090E00196242F30E02F733070220F331F33
:104E5000820F931F2E85229526952695237030E08C
:104E60002150304002C0880F991F2A95E2F721C0D7
:104E7000282F30E02370307053E0220F331F5A95F3
:104E8000E1F7829586958770280F311D2F5F3F4F80
:104E9000842F90E08C779070959587959595879560
:104EA0000196AC01249FC001259F900D349F900D69
:104EB0001124A0E0B0E0F80180839183A283B38342
:104EC00020E001C021E0C49A8FEF8FB9779BFECF1D
:104ED000B3C18091DD01DB018C937DC089E040E0AE
:104EE00050E060E070E00E94EF23882341F4C801A5
:104EF00060E170E00E947E2320E0892B09F421E02C
:104F0000C49A8FEF8FB9779BFECF96C18AE040E0BD
:104F100050E060E070E00E94EF23882341F4C80174
:104F200060E170E00E947E2320E0892B09F421E0FB
:104F3000C49A8FEF8FB9779BFECF7EC18AE340E0A2
:104F400050E060E070E00E94EF23882389F4F801CC
:104F50009FEF98012D5F3F4F9FB9779BFECF8FB199
:104F60008083E217F30711F420E003C03196F4CFF9
:104F700021E0C49A8FEF8FB9779BFECF5DC18DE89A
:104F800040E050E060E070E00E94EF23882369F485
:104F90008FEF8FB9779BFECF8FB1C80160E470E0CF
:104FA0000E947E2320E0892B09F421E0C49A8FEF30
:104FB0008FB9779BFECF40C11DB887B38F7487BB75
:104FC00088B38F7488BB88B38C6088BB809148019C
:104FD00081608093480120E030C1FB01438154810E
:104FE0006581768139E0440F551F661F771F3A951A
:104FF000D1F77068808190E0A0E0B0E02CE1880FEC
:10500000991FAA1FBB1F2A95D1F7482B592B6A2B32
:105010007B2B818192810197A0E0B0E09170A0701C
:10502000B070482B592B6A2B7B2B80E30E94EF2317
:105030008823D1F584E68093DA019FEF9FB9779BAF
:10504000FECF8FB18F3F29F48091DA018823B1F729
:105050002BC08E3F49F5D8011796ED91FC9118971A
:1050600011962D913C9112979FEF07C09FB9779BA6
:10507000FECF8FB181932150304021153105B1F71A
:1050800022E032E0F80181819281281B390B8FEFF9
:1050900006C08FB9779BFECF9FB1215030402115BC
:1050A0003105B9F720E001C021E0C49A8FEF8FB934
:1050B000779BFECFC1C0DB0113964D915D916D9141
:1050C0007C911697F9E0440F551F661F771FFA95DC
:1050D000D1F770688C9190E0A0E0B0E0ECE1880F2F
:1050E000991FAA1FBB1FEA95D1F7482B592B6A2B92
:1050F0007B2BF801818192810197A0E0B0E0917053
:10510000A070B070482B592B6A2B7B2B81E30E9437
:10511000EF238823C1F58FEF8FB9779BFECF8FB137
:105120008EEF8FB9779BFECF8FB1D8011796ED9197
:10513000FC91189711966D917C9112979B0108C074
:1051400080818FB9779BFECF31968FB1215030404F
:1051500021153105A9F722E032E0261B370B8FEF2E
:1051600006C08FB9779BFECF9FB1215030402115EB
:105170003105B9F78FEF8FB9779BFECF8FB120E064
:105180008F71853009F021E0C49A8FEF8FB9779B3A
:10519000FECF52C0FB01438154816581768139E0A5
:1051A000440F551F661F771F3A95D1F774688081A9
:1051B00090E0A0E0B0E02CE1880F991FAA1FBB1F70
:1051C0002A95D1F7482B592B6A2B7B2B828190E0B3
:1051D000A0E0B0E0482B592B6A2B7B2B81E30E9487
:1051E000EF23882319F58FEF8FB9779BFECF8FB10F
:1051F0008EEF8FB9779BFECF8FB1D80111968C912E
:105200008FB9779BFECF8FB181E092E02FEF2FB95E
:10521000779BFECF3FB10197D1F78FEF8FB9779B87
:10522000FECF8FB120E08F71853009F021E0C49A64
:105230008FEF8FB9779BFECF8FB1822F60960FB61D
:10524000F894DEBF0FBECDBFCF91DF911F910F91BC
:10525000FF9008958091DA01882319F0815080939E
:10526000DA018091DB019091DC01009729F0019730
:105270009093DC018093DB0180914801897F8093CA
:10528000480108956FD008F481E0089590D0E39527
:10529000B5C0CDD088F09F5790F0B92F9927B7515E
:1052A000A0F0D1F0660F771F881F991F1AF0BA95EA
:1052B000C9F712C0B13081F0D4D0B1E00895D1C0A7
:1052C000672F782F8827B85F39F0B93FCCF38695E0
:1052D00077956795B395D9F73EF49095809570953D
:1052E00061957F4F8F4F9F4F0895E89409C097FBBA
:1052F0003EF490958095709561957F4F8F4F9F4FAD
:105300009923A9F0F92F96E9BB279395F6958795F0
:1053100077956795B795F111F8CFFAF4BB0F11F4B3
:1053200060FF1BC06F5F7F4F8F4F9F4F16C088235A
:1053300011F096E911C0772321F09EE8872F762F90
:1053400005C0662371F096E8862F70E060E02AF0D1
:105350009A95660F771F881FDAF7880F96958795BD
:1053600097F90895990F0008550FAA0BE0E8FEEF92
:1053700016161706E807F907C0F012161306E40719
:10538000F50798F0621B730B840B950B39F40A2612
:1053900061F0232B242B252B21F408950A2609F4F0
:1053A000A140A6958FEF811D811D089542C13FD078
:1053B000E8F3E894E0E0BB279F57F0F02AED3FE0E8
:1053C00049EC06C0EE0FBB0F661F771F881F28F041
:1053D000B23A62077307840728F0B25A620B730B64
:1053E000840BE3959A9572F7803830F49A95BB0F49
:1053F000661F771F881FD2F790480FC1EF93E0FF19
:1054000006C0A2EA2AED3FE049EC5FEBABD033D116
:105410000F90039401FC9058E4E5F0E00DC157FDB6
:105420009058440F551F59F05F3F71F04795880F12
:1054300097FB991F61F09F3F79F0879508951216A9
:1054400013061406551FF2CF4695F1DF08C0161655
:1054500017061806991FF1CF869571056105089406
:105460000895E894BB2766277727CB0197F908951D
:1054700079DF08F48FEF08950BD0FDC0EED028F04F
:10548000F3D018F0952309F0C0C0D3C01124EACF9F
:10549000C6DFA0F3959FD1F3950F50E0551F629F93
:1054A000F001729FBB27F00DB11D639FAA27F00D7D
:1054B000B11DAA1F649F6627B00DA11D661F829FA4
:1054C0002227B00DA11D621F739FB00DA11D621F89
:1054D000839FA00D611D221F749F3327A00D611DA6
:1054E000231F849F600D211D822F762F6A2F112488
:1054F0009F5750408AF0E1F088234AF0EE0FFF1FDB
:10550000BB1F661F771F881F91505040A9F79E3F11
:10551000510570F07AC0A6CF5F3FECF3983EDCF304
:10552000869577956795B795F795E7959F5FC1F74E
:10553000FE2B880F911D9695879597F908959F9357
:1055400036DF0F9007FCEE5F59CF87D030F08CD05C
:1055500020F031F49F3F11F41EF46BC00EF4E0957F
:10556000E7FB53C0E92F5BDF80F3BA1762077307CD
:105570008407950718F071F49EF573CF0EF4E0954B
:105580000B2EBA2FA02D0B01B90190010C01CA01FD
:10559000A0011124FF27591B99F0593F50F4503EA8
:1055A00068F11A16F040A22F232F342F4427585F9A
:1055B000F3CF469537952795A795F0405395C9F7B2
:1055C0007EF41F16BA0B620B730B840BBAF091506A
:1055D000A1F0FF0FBB1F661F771F881FC2F70EC009
:1055E000BA0F621F731F841F48F4879577956795DC
:1055F000B795F7959E3F08F0B3CF9395880F08F0C5
:105600009927EE0F97958795089597F99F6780E8FA
:1056100070E060E008959F3F31F0915020F487954D
:1056200077956795B795880F911D9695879597F90A
:1056300008959FEF80EC08959F938F937F936F93CE
:10564000FF93EF939B01AC0117DFEF91FF9124D003
:105650002F913F914F915F910FCF00240A9416161E
:10566000170618060906089500240A941216130650
:10567000140605060895092E0394000C11F48823DE
:1056800052F0BB0F40F4BF2B11F460FF04C06F5FFA
:105690007F4F8F4F9F4F0895DF93CF931F930F93AB
:1056A000FF92EF92DF927B018C01689405C0DA2EA5
:1056B000EF01EEDEFE01E894A5912591359145912B
:1056C0005591AEF3EF014EDFFE019701A801DA9488
:1056D00079F7DF90EF90FF900F911F91CF91DF91BD
:1056E0000895629FD001739FF001829FE00DF11D2C
:1056F000649FE00DF11D929FF00D839FF00D749F4C
:10570000F00D659FF00D9927729FB00DE11DF91FF7
:10571000639FB00DE11DF91FBD01CF011124089554
:10572000AA1BBB1B51E107C0AA1FBB1FA617B707C7
:1057300010F0A61BB70B881F991F5A95A9F78095E3
:105740009095BC01CD010895A1E21A2EAA1BBB1BA6
:10575000FD010DC0AA1FBB1FEE1FFF1FA217B3073D
:10576000E407F50720F0A21BB30BE40BF50B661F53
:10577000771F881F991F1A9469F760957095809517
:1057800090959B01AC01BD01CF010895FB01DC01A7
:1057900004C08D910190801921F441505040C8F708
:1057A000881B990B0895FB01DC0102C001900D924A
:1057B00041505040D8F70895DC0101C06D9341502D
:1057C0005040E0F70895FC018191861721F088236D
:1057D000D9F7992708953197CF010895FB01DC018E
:1057E00001900D920020E1F70895AEE0B0E0EBEFFC
:1057F000FBE20C94A42E0D891E8986E08C831A830B
:1058000009838FEF9FE79E838D839E01275E3F4F25
:10581000CE0101966F89788DA9010E94192C2F81E4
:105820003885020F131FF80110822E96E4E00C94C5
:10583000C02EABE0B0E0EFE1FCE20C94962E3C0110
:105840002B015A01FC0117821682838181FD03C05E
:105850006FEF7FEFC6C19AE0892E1E010894211CCC
:10586000311CF3012381F20123FD859123FF8191F6
:105870002F01882309F4B2C1853239F423FD8591C3
:1058800023FF81912F01853229F490E0B3010E941A
:105890000C2EE7CF982FFF24EE249924FFE1FF156B
:1058A000D0F09B3269F09C3228F4903259F0933258
:1058B00091F40EC09D3249F0903369F441E024C068
:1058C00052E0F52A84E0F82A28C098E0F92A25C099
:1058D000E0E1FE2A22C0F7FC29C0892F80538A30DC
:1058E00070F4F6FE05C0989C902C1124980E15C0FB
:1058F000E89CE02C1124E80EF0E2FF2A0EC09E3254
:1059000029F4F6FC6BC140E4F42A07C09C3619F474
:1059100050E8F52A02C0983649F4F20123FD95912A
:1059200023FF91912F01992309F0B8CF892F855436
:10593000833018F08052833038F444E050E0A40EF5
:10594000B51E5FE359830FC0933631F0933779F07A
:10595000933509F056C020C0F5018081898342E06B
:1059600050E0A40EB51E610101E010E012C0F50187
:10597000C080D180F6FC03C06FEF7FEF02C0692DBD
:1059800070E042E050E0A40EB51EC6010E94012E58
:105990008C015FE7F52214C0F501C080D180F6FCD0
:1059A00003C06FEF7FEF02C0692D70E042E050E06E
:1059B000A40EB51EC6010E94F62D8C0150E8F52AF2
:1059C000F3FE07C01AC080E290E0B3010E940C2EE3
:1059D000EA948E2D90E008171907A8F30EC0F6017F
:1059E000F7FC8591F7FE81916F0190E0B3010E9471
:1059F0000C2EE110EA94015010400115110579F7C1
:105A0000EAC0943611F0993669F5F7FE08C0F50141
:105A1000208131814281538184E090E00AC0F50108
:105A2000808191819C01442737FD4095542F82E06D
:105A300090E0A80EB91E9FE6F92257FF09C05095C5
:105A40004095309521953F4F4F4F5F4FE0E8FE2A3C
:105A5000CA01B901A1012AE030E00E94382ED82EF7
:105A6000D21840C0953729F41F2D1F7E2AE030E060
:105A70001DC01F2D197F9F3661F0903720F4983597
:105A800009F0ACC00FC0903739F0983709F0A6C0C4
:105A900004C028E030E00AC0106114FD146020E169
:105AA00030E004C014FD166020E132E017FF08C0AA
:105AB000F501608171818281938144E050E008C0EA
:105AC000F50180819181BC0180E090E042E050E0EE
:105AD000A40EB51EA1010E94382ED82ED2188FE731
